:200000000208D0FFFFFFFFFFFFFFFF0208DC0106011501260137014A015D01710188019F68
:2000200001B801D201EE0002040507090B010204081020401A031B031F661B031F0221027E
:200040001B00170317031A6619031A021F02191517031703186617031803156700001702CE
:200060001703180319021503160317031703170318031902160317031802180317031502E2
:200080001803170318021003150316021503160317021703180319021A031B031F031F03B5
:2000A000170318031902160317031803170318031F031F0216031703180317031803200384
:2000C00020021F031B031F662003210320031F031B031F661F031B031903190315031A66FA
:2000E0001A031903150315031703166617041804180319031F031B031F6620032103200364
:200100001F031B031F661F031B031903190315031A661A03190319031F031B031F001A0339
:200120001A031A031B031B031A03190319021703151715031603170318031704180E1803ED
:200140001704180E18661703180317031803200320021F031B031F662003210320031F03E0
:200160001B031F661F041B0E1B031903190315031A661A0319031503150317031666170488
:200180001804180319031F031B031F662003210320031F031B031F661F031B0319031903A0
:2001A00015031A661A03190319031F031B031F00180218031A03190D1503150218661602B6
:2001C0001702150000000F0115021602176618031702150216011502100215000F0115026E
:2001E000160217021703180319021502186617031902160317031600170119021B021B7090
:200200001A031A01190219031A031B021A0D190317001866180319021A02190C180D1703A7
:2002200016011102110310030F0C100215001F011A01186619031A011B021B031B031B0CBB
:200240001A0D190317001F011A01186619031A011002100310031A0C180D170316000F0191
:200260001502160217701803170215031503166616031602160315031002100111011166DA
:2002800010030F0C1A0219021603160318661803180217031603190000001703160317017D
:2002A0001603170316031501100315031602160D1703160315031003100E15040F011703B7
:2002C000160317011603170316031501100315031602160D17031603150310031503160198
:2002E0001703160317011603170316031501100315031602160D1703160315031003100E6F
:2003000015040F0117031903190119031A0319031701160316031602160D1703160315033F
:200320001003100D1500190319031A031F031B031B031A03170D16031603160D17011703FD
:20034000170319031A021A021003170D16031601170319031903170319021F021B031A03E5
:200360001A0E1B0417021A031A031A0E1B041A03190317031603170D1603170319011903A3
:2003800019031A031F031B031B031A03170D16031603160317011703170319031A021A029A
:2003A0001003170D16031601170319031903170319031F021B031A031A0E1B0417021A0375
:2003C0001A031A0E1B0417161A031A031A0E1B041A031903170316030F0210031500000066
:2003E0007BFF750C00750D02750E01750F5EE4FD8B088A09890A8D0BE4F528E528250BFFA9
:20040000D3940B401A74F42F25E0240EF582E43400F58374019325E0FFE49333FE8013EF05
:2004200025E0240EF582E43400F583E493FE740193FFE52825E02410F8A60608A607E50D71
:200440006401450C7018E52825E02410F8C000E6FE08E67802CEC313CE13D8F9801EE50D2E
:200460006403450C701CE52825E02410F8C000E6FE08E67802C333CE33CED8F9D000A606DC
:2004800008F60528E528640C60030203FBE4F533F534AB08AA09A90A853482853383120675
:2004A000AC600D74022534F534E43533F53380E2E4F529F52AAB08AA09A90A852A8285293C
:2004C000831206ACF535E52A2401FFE435298F82F5831206ACF536AC0EAD0F7E2E7FE0122B
:2004E00006D98E2B8F2CE52C7802CEC313CE13D8F9F5328E317802C333CE33CED8F9FF7C57
:20050000007D051206D9C3E5329FF532E5319EF531C28CD28EC3E52A9534E529953340038C
:200520000206A9E53575F00A8485F037E53575F00A8475F00A84ADF0E53575F06484FFE569
:2005400037900025932F25E02410F8E6FE08E6FFE5376047BD010BEF7802CEC313CE13D899
:20056000F9FFBD030BEF7802C333CE33CED8F9FFE4FCFDF8F9AA06AB077F507EC312084B15
:20058000E47B0AFAF9F812072EC3E49FFFE49EF53B8F3DF58CE53D240CF58AE53675F00A21
:2005A00084E5F090002D93F538E53675F00A8475F00A8485F039E53675F06484F53AE53802
:2005C000FD7C00AE2BAF2C1206D9AB07AA06E53AB4010BEAC313FEEB132BFBEE3AFAE5399A
:2005E0006401603DE539702EE538D39404500DC3EB9532F52EEA9531F52D8029EBAE027832
:2006000002C333CE33CED8F9FF7C007D051206D98E2D8F2E800FEAC313F52DEB13F52E80CA
:20062000048A2D8B2EE5377004F52DF52EC3EB952EF530EA952DF52FE537601BD28C852E63
:2006400028E528D39400400F308FFD853C8D853E8BC28F152880EAE530452F601DC28CD239
:2006600095853028E528D39400400F308FFD853C8D853E8BC28F152880EA7402252AF52A11
:20068000E43529F529AB08AA09A90A852A82F5831206ACF535E52A2401FFE435298F82F5CF
:2006A000831206ACF536020515D29522BB010CE58229F582E5833AF583E0225006E9258252
:2006C000F8E622BBFE06E92582F8E222E58229F582E5833AF583E49322BC000BBE0029EF78
:2006E0008DF084FFADF022E4CCF875F008EF2FFFEE33FEEC33FCEE9DEC984005FCEE9DFEF6
:200700000FD5F0E9E4CEFD22EDF8F5F0EE8420D21CFEADF075F008EF2FFFED33FD400798E0
:200720005006D5F0F222C398FD0FD5F0EA22E88FF0A4CC8BF0A42CFCE98EF0A42CFC8AF087
:20074000EDA42CFCEA8EF0A4CDA8F08BF0A42DCC3825F0FDE98FF0A42CCD35F0FCEB8EF07E
:20076000A4FEA9F0EB8FF0A4CFC5F02ECD39FEE43CFCEAA42DCE35F0FDE43CFC2275F00808
:20078000758200EF2FFFEE33FECD33CDCC33CCC58233C5829BED9AEC99E58298400CF58264
:2007A000EE9BFEED9AFDEC99FC0FD5F0D6E4CEFBE4CDFAE4CCF9A88222B800C1B90059BA71
:2007C000002DEC8BF084CFCECDFCE5F0CBF97818EF2FFFEE33FEED33FDEC33FCEB33FB10D5
:2007E000D703994004EB99FB0FD8E5E4F9FA227818EF2FFFEE33FEED33FDEC33FCC933C935
:2008000010D7059BE99A4007EC9BFCE99AF90FD8E0E4C9FAE4CCFB2275F010EF2FFFEE339A
:20082000FEED33FDCC33CCC833C810D7079BEC9AE899400AED9BFDEC9AFCE899F80FD5F0E1
:20084000DAE4CDFBE4CCFAE4C8F922C2D5E830E70FB2D5E4C39BFBE49AFAE499F9E498F8D6
:20086000EC30E717B2D51208811207B9E4C39BFBE49AFAE499F9E498F880031207B930D571
:200880000DE4C39FFFE49EFEE49DFDE49CFC221208B47A0079341203E07A00795E1203E03A
:2008A0007BFF7A0179C61203E27BFF7A02799A1203E280DED295753CFF753EFF853C8D8513
:2008C0003E8B438911D2A9C2ABC28CC28ED2AF22787FE4F6D8FD75813E02088FB295853BCF
:0608E0008C853D8A32FF09
:00000001FF
