:200000000202EF7E7DE4FD000DBDE6FBDEF7DFF522B29585088D85098B3201020011CB35DB
:2000200016B9129699A5BD9996151315623213A7262516A922A3A996151699E5BB15A7AABC
:200040009699D51315231516179AD61516B91225232322131221961543C99699961513151D
:200060001699D5002325261615361342232526161526532325261615262342252312131223
:200080001122D626DA25531211D6AD231213121122D60055232526A92273452526232221DF
:2000A0002372522345432221A62566C9A625232526A9F545232546C92213122122632223CC
:2000C00025262523222172522345432221A62566B912232522A5AB2271001516751516552F
:2000E00013151615169912136545131211127362421211961576552345A9225312136552D5
:20010000224221A6E9911213121315991220232323632223232241A625532221A921A67533
:2001200026A921A6C91211961523252526452122133525A9A62523227152254513151312D7
:200140002141224345232526A9421233725122432221C6C929C64523235325262513122178
:2001600062422325552625234526A9212263522222131221A6F9000001020304060810FF74
:20018000EAF243F3C2F518F5B7F6D1F7DBF8BEFFEAF922F9E1FA8CFADCFB6CFBECFC5EFFA2
:2001A000EAFC93FCF2FD47FD6EFDB6FDF6FE2FFFEAFE49FE79FEA4FEB7FEDBFEECFF0AFF8D
:2001C000EAF30DF477F5B7F646F759F84FF922FFEAF987FA3CFADCFB26FBADFC26FC93FF42
:2001E000EAFCC4FD1EFD6EFD93FDD7FE14FE49FFEAFE62FE8FFEB7FECAFEE4FEFBFF167C53
:2002000020E4F50BC200C2017508FF7509EA758911D2AB1202D6FF70030202A85407F50B82
:20022000EFC4540FF50A6058EFC394804019EF20E30BEC9410401074F02CFC800AECC3949C
:2002400030500474102CFCE50B25E02CFF3000059001BF800390017F93F508EFA393F50983
:20026000E50A54079001779330010F14FF1200037508FF7509EA7F018001FF120003801E9A
:20028000E50B24FB600E14600F1460102403700EC200800AD2008006C2018002D201740104
:2002A00029F9E43AFA020213C2ABD2952275891175B80875A8887BFF7A00791E1201FF7AF7
:2002C0000079641201FF7A0079931201FF7A0079DA1201FF80E0BB010689828A83E022502C
:1C02E00002E722BBFE02E32289828A83E49322787FE4F6D8FD7581200202AD0316
:00000001FF
