:2000000002000ED3EF9400EE9400400201D9758901D2A9D2AF75B0FFC2B4E5B0540F640FDC
:2000200060611201D0E5B0540F640F6056E5B0540FB40E06753000020056B40D06753001D1
:20004000020056B40B06753002020056B4070675300302005600E5309001E293F580E5301E
:2000600075F002A4F5339001F293F531F58C0533E53393F532F58AD28CE5B0540F640F70CE
:20008000F8C28C75B0FFC2B5E5B0540F640F60611201D0E5B0540F640F6056E5B0540FB4A3
:2000A0000E067530040200C4B40D067530050200C4B40B067530060200C4B40706753007E3
:2000C0000200C400E5309001E293F580E53075F002A4F5339001F293F531F58C0533E53375
:2000E00093F532F58AD28CE5B0540F640F70F8C28C75B0FFC2B6E5B0540F640F606112016D
:20010000D0E5B0540F640F6056E5B0540FB40E06753008020132B40D06753009020132B4EE
:200120000B0675300A020132B4070675300B02013200E5309001E293F580E53075F002A474
:20014000F5339001F293F531F58C0533E53393F532F58AD28CE5B0540F640F70F8C28C753D
:20016000B0FFC2B7E5B0540F640F60611201D0E5B0540F640F6056E5B0540FB40E067530C2
:200180000C0201A0B40D0675300D0201A0B40B0675300E0201A0B4070675300F0201A00061
:2001A000E5309001E293F580E53075F002A4F5339001F293F531F58C0533E53393F532F5AB
:2001C0008AD28CE5B0540F640F70F8C28C0200157E0A7FF8DFFEDEFA2285318C85328AB2F4
:2001E00095323F065B4F666D7D077F6F777C395E7971FA15FA67FB04FB90FC0CFC44FCACA6
:13020000FD09FD34FD82FDC8FE06FE22FE56FE85FE9AFFDE
:00000001FF
