:20000000020100FFFFFFFFFFFFFFFFFFFFFFFFFFFFFFFFFFFFFFFFFFFFFFFFFFFFFFFFFFFA
:20002000FFFFFFFFFFFFFFFFFFFFFFFFFFFFFFFFFFFFFFFFFFFFFFFFFFFFFFFFFFFFFFFFE0
:20004000FFFFFFFFFFFFFFFFFFFFFFFFFFFFFFFFFFFFFFFFFFFFFFFFFFFFFFFFFFFFFFFFC0
:20006000FFFFFFFFFFFFFFFFFFFFFFFFFFFFFFFFFFFFFFFFFFFFFFFFFFFFFFFFFFFFFFFFA0
:20008000FFFFFFFFFFFFFFFFFFFFFFFFFFFFFFFFFFFFFFFFFFFFFFFFFFFFFFFFFFFFFFFF80
:2000A000FFFFFFFFFFFFFFFFFFFFFFFFFFFFFFFFFFFFFFFFFFFFFFFFFFFFFFFFFFFFFFFF60
:2000C000FFFFFFFFFFFFFFFFFFFFFFFFFFFFFFFFFFFFFFFFFFFFFFFFFFFFFFFFFFFFFFFF40
:2000E000FFFFFFFFFFFFFFFFFFFFFFFFFFFFFFFFFFFFFFFFFFFFFFFFFFFFFFFFFFFFFFFF20
:200100007581607590FF1201352090031201A02091031201A82092031201B0209303120127
:20012000B82094031201C02097031201C82096031201D080D4900143E493A3600512016A28
:2001400080F62211100F0E0D0C0B0B0B0C0D0E0F1011111011100F100F0E0F0E0D0E0D0C69
:200160000D0C0B0C0B0B0C0C0C007D40FF317BFEC006318DDEFCD006DDF62275F0FFC5F06D
:2001800084C5F0B40800400205F0C5F022EFC2951201D8D5E0F8EFD2951201D8D5E0F8226E
:2001A0007F11318D3090FB227F10318D3091FB227F0F318D3092FB227F0E318D3093FB2293
:1B01C0007F0D318D3094FB227F0C318D3097FB227F0B318D3096FB220022FF80
:00000001FF
