:200000000120B075900FE590640F60020062A3E590640F606975900FAF90EF24F56010240C
:2000200075890175A882753000E5309000B093FA602B540FFBEA54F07004C28C8015C41455
:2000400023FC90007893F58CF521ECA393F58AF520D28C12006BDBFB0530020029C28C0238
:20006000002685208A85218CB295327F027E7D7DF8DDFEDEFADFF622FC44F8C4FD09FD34B2
:20008000FD82FDC8FE06FE22FE56FB04FB90FC0CFB90FC0CFC44F8C4FD09FD34FD82FDC808
:2000A000FE06FE22FE56FE85FE9AFEC1FEE4FF03321252323212523242125242323212120A
:2000C00032123212D232321252324212524232323232321252323212523242125242323240
:2000E000121232123212D232321252324212524232320202025263C1C25263C1C2A2B4046C
:2001000002C2B2A253B1B23253B1B252A65202122223325462342224021222322612140C64
:20012000140C325432625232222212140862A46262525432525408625262A2B2C2726256E9
:0C01400031213404022232526254320B8E
:00000001FF
